:100000000C9464000C948C000C948C000C948C0068
:100010000C948C000C948C000C948C000C948C0030
:100020000C948C000C948C000C948C000C948C0020
:100030000C948C000C948C000C948C000C948C0010
:100040000C94F0030C948C000C94DF040C948C0042
:100050000C948C000C948C000C948C000C948C00F0
:100060000C948C000C948C000000000024002700ED
:100070002A0000000000250028002B0000000000DE
:1000800023002600290004040404040404040202DA
:100090000202020203030303030301020408102007
:1000A0004080010204081020010204081020000012
:1000B0000007000201000003040600000000000029
:1000C0000000B100B600280611241FBECFEFD4E017
:1000D000DEBFCDBF11E0A0E0B1E0E0EFFFE002C085
:1000E00005900D92A031B107D9F711E0A0E1B1E080
:1000F00001C01D92A63BB107E1F710E0C8ECD0E0CB
:1001000004C02297FE010E94F207C23CD107C9F742
:100110000E94E9030C94F6070C9400001CBC6F725B
:1001200060656CBD8DB58EB508956EBD0DB407FECE
:10013000FDCF8EB508958DE061E00E9472048BE0E2
:1001400061E00E9472048CE060E00E9472048AE028
:1001500061E00E9472041CBC80E58CBD8DB58EB53B
:10016000089580E191E00E949B00089588E08093CB
:10017000120187E08093130181E08093140180E1F4
:10018000809315010895FC01828160E00E94920431
:100190000895FC01828161E00E9492040895FC01AF
:1001A000818160E00E9492040895FC01818161E0F8
:1001B0000E94920408950F931F938C010E94C30024
:1001C00080E191E062EE0E949500C8010E94C900A2
:1001D0001F910F910895CF92DF92EF92FF920F93AC
:1001E0001F936C01162F042F0E94C30080E1E82E9C
:1001F00081E0F82E1F711062C701612F0E949500E7
:10020000C701602F0E949500C6010E94C9001F917E
:100210000F91FF90EF90DF90CF9008950F931F9371
:100220008C01FC0110820E94CF00C80160E04BE20B
:100230000E94EB00C8010E94D500C80167E040E3BE
:100240000E94EB001F910F9108950F931F938C0153
:1002500065E0F80143810E94EB00C80161E1F8010B
:1002600044810E94EB00C80162E1F80144810E94D0
:10027000EB00C8010E940E01C8010E94DB001F9123
:100280000F9108950F931F93CF93DF93042FEB01EA
:1002900010E006C080E191E069910E9495001F5F27
:1002A0001017C0F3DF91CF911F910F910895CF9256
:1002B000DF92EF92FF920F931F937C01162F6A013A
:1002C000022F0E94C3001F71106280E191E0612F34
:1002D0000E949500C701B601402F0E944201C7014C
:1002E0000E94C9001F910F91FF90EF90DF90CF9077
:1002F0000895EF92FF920F931F938C017B010E9450
:10030000CF00C8016BE0A70125E00E945701C8019A
:100310000E94D5001F910F91FF90EF900895DF92FA
:10032000EF92FF920F931F93CF93DF937A01D22E18
:100330008B01C0E0D0E00CC080E191E0F801619158
:100340008F010E949500F701EC0FFD1F808321961D
:10035000CD1590F3DF91CF911F910F91FF90EF900A
:10036000DF900895CF92DF92EF92FF920F931F9349
:100370007C01162F6A01022F0E94C3001F7180E1C9
:1003800091E0612F0E949500C701B601A601202FC0
:100390000E948F01C7010E94C9001F910F91FF9019
:1003A000EF90DF90CF900895DF93CF930F92CDB76A
:1003B000DEB767E0AE014F5F5F4F21E00E94B20100
:1003C00089810F90CF91DF9108950E94D40190E030
:1003D00026E0969587952A95E1F781700895DF9339
:1003E000CF930F92CDB7DEB767E1AE014F5F5F4F9E
:1003F00021E00E94B201898181700F90CF91DF913D
:100400000895EF92FF920F931F938C017B010E943E
:10041000C30080E191E061E60E949500C801B70148
:10042000A701F80124810E948F01C8010E94C90020
:10043000C80167E040E40E94EB001F910F91FF901C
:10044000EF9008950F931F938C01FC01818161E06F
:100450000E947204F801828161E00E947204C80166
:100460000E94CF00C8010E94C90080E191E061E0D4
:100470000E948E0081E08DBD1F910F9108950F9312
:100480001F9303EA11E0C80140E850E060E070E02B
:1004900020E030E00E945807C80141E050E060E0F1
:1004A00070E020E030E00E945807C80141E050E0D1
:1004B00060E070E020E030E00E945807C80140E0B2
:1004C00050E060E070E020E030E00E945807C80192
:1004D00040E050E060E070E020E030E00E9458072B
:1004E0001F910F9108950F931F9303EA11E0C80124
:1004F00040E850E060E070E020E030E00E94580703
:10050000C80141E050E060E070E020E030E00E948F
:100510005807C80140E050E060E070E020E030E0C3
:100520000E945807C80140E050E060E070E020E021
:1005300030E00E945807C8014FE450E060E070E0EE
:1005400020E030E00E9458071F910F9108958F928C
:100550009F92AF92BF92CF92DF92EF92FF920F9352
:100560001F93E82EA62E83EA882E81E0982EC401E0
:1005700040E850E060E070E020E030E00E94580782
:10058000C40141E050E060E070E020E030E00E9413
:100590005807C40144E050E060E070E020E030E043
:1005A0000E945807C40140E050E060E070E020E0A5
:1005B00030E00E945807FF2400E010E0C401B801B9
:1005C000A70120E030E00E945807BB24CC24DD24A2
:1005D000C401B601A50120E030E00E9458071F9138
:1005E0000F91FF90EF90DF90CF90BF90AF909F90D2
:1005F0008F9008951F93122F863619F4842F61E08F
:100600000BC06C3639F4842F61E00E949204812F74
:1006100060E006C0842F60E00E949204812F61E0B8
:100620000E9492041F910895CF92DF92EF92FF9261
:100630000F931F93DF93CF93CDB7DEB7EDB6FEB622
:10064000809115012DB73EB7281B31090FB6F894DC
:100650003EBF0FBE2DBF0DB71EB70F5F1F4F81E10D
:1006600091E00E94E501882309F444C0680181E11A
:1006700091E0B6010E940102F80180818333D1F03C
:10068000843328F4803341F0813369F50BC084331F
:10069000C9F0853341F51EC0F801818162810E9455
:1006A000A70221C0F8018181628143E050E022E08D
:1006B00030E017C0F8018181628145E050E024E01C
:1006C00030E00FC0F8018181628143E150E022E116
:1006D00030E007C0F8018181628141E150E020E112
:1006E00030E00E94FA0281E191E00E94EF0188234C
:1006F00009F4BDCF0FB6F894FEBE0FBEEDBECF918C
:10070000DF911F910F91FF90EF90DF90CF900895B0
:100710000F931F9382E061E00E94720483E061E026
:100720000E94720480E161E00E94720481E161E054
:100730000E94720482E161E00E94720483E161E040
:100740000E94720484E061E00E94720485E061E02E
:100750000E94720482E061E00E94920483E061E002
:100760000E94920480E161E00E94920481E161E0D4
:100770000E94920482E161E00E94920483E161E0C0
:100780000E94920484E061E00E94920485E061E0AE
:100790000E9492040E9473020E943F0283EA91E049
:1007A00040E855E260E070E00E941C0501E111E0C4
:1007B000C8010E942202C80160E071E00E94790134
:1007C00083E080931501C8010E9425011F910F91BC
:1007D00008950E9438040E9488030E941403FDCFEC
:1007E0001F920F920FB60F9211242F933F938F9366
:1007F0009F93AF93BF9380911A0190911B01A09199
:100800001C01B0911D0130911E010196A11DB11D69
:10081000232F2D5F2D3720F02D570196A11DB11DDF
:1008200020931E0180931A0190931B01A0931C0139
:10083000B0931D018091160190911701A0911801AC
:10084000B09119010196A11DB11D809316019093DD
:100850001701A0931801B0931901BF91AF919F9117
:100860008F913F912F910F900FBE0F901F90189571
:10087000789484B5826084BD84B5816084BD85B57B
:10088000826085BD85B5816085BDEEE6F0E0808142
:1008900081608083E1E8F0E08081826080838081F4
:1008A00081608083E0E8F0E0808181608083E1EB1B
:1008B000F0E0808184608083E0EBF0E08081816003
:1008C0008083EAE7F0E080818460808380818260B9
:1008D00080838081816080838081806880831092A2
:1008E000C1000895282F30E0C90186569F4FFC01B2
:1008F00094912A573F4FF9018491882391F0E82F72
:10090000F0E0EE0FFF1FE859FF4FA591B491662369
:1009100029F48C91909589238C9308958C91892B3F
:100920008C930895482F50E0CA0182559F4FFC01D7
:100930002491CA0186569F4FFC0194914A575F4FFC
:10094000FA0134913323D1F1222331F1233021F400
:10095000809180008F7705C0243031F48091800031
:100960008F7D8093800018C0213019F484B58F7773
:1009700004C0223021F484B58F7D84BD0DC02630A3
:1009800021F48091B0008F7705C0273029F4809141
:10099000B0008F7D8093B000E32FF0E0EE0FFF1FDB
:1009A000EE58FF4FA591B491662329F48C91909550
:1009B00089238C9308958C91892B8C9308951F9291
:1009C0000F920FB60F9211242F933F934F935F9383
:1009D0006F937F938F939F93AF93BF93EF93FF9307
:1009E0004091C600E0919F01F091A001CF010196D6
:1009F00060E870E00E948C079C018091A1019091B9
:100A0000A2012817390739F0E15EFE4F4083309389
:100A1000A00120939F01FF91EF91BF91AF919F9112
:100A20008F917F916F915F914F913F912F910F9097
:100A30000FBE0F901F9018955F926F927F928F92CA
:100A40009F92AF92BF92CF92DF92EF92FF920F935D
:100A50001F93CF93DF93EC013A014B01413482E4C1
:100A600058078FE0680780E078070CF07FC060E8E7
:100A700074E88EE190E0A40193010E94C107215027
:100A8000304040405040CA01B90122E030E040E02F
:100A900050E00E94C10759016A01A6019501209505
:100AA00030954095509594E0220F331F441F551FF9
:100AB0009A95D1F760E074E284EF90E00E94C1075C
:100AC000CA01B9012FEF30E040E050E00E946D070D
:100AD000A40193010E94C107C90181509F4F1816BC
:100AE00019061CF4522E5A9403C055245394521ADA
:100AF00060E079E08DE390E0A40193010E94C107DA
:100B00002150304040405040CA01B90122E030E05D
:100B100040E050E00E94C1072095309540955095E7
:100B200083E0220F331F441F551F8A95D1F760E0E1
:100B300074E284EF90E00E94C107CA01B9012FEF6F
:100B400030E040E050E00E946D07A40193010E9454
:100B5000C107C90181509F4F181619061CF4822F36
:100B6000815002C081E0821B851500F5E885F9857A
:100B700081E090E00A8802C0880F991F0A94E2F78A
:100B8000808360E079E08DE390E0A40193010E940E
:100B9000C1072150304040405040CA01B90122E015
:100BA00030E040E050E00E94C10704C0E885F985CC
:100BB00010829501EC81FD813083EE81FF812083DD
:100BC000EA85FB85208141E050E0CA010E8402C025
:100BD000880F991F0A94E2F7282B2083EA85FB856A
:100BE0002081CA010F8402C0880F991F0A94E2F77E
:100BF000282B2083EA85FB858081088802C0440F6A
:100C0000551F0A94E2F7842B8083DF91CF911F91C7
:100C10000F91FF90EF90DF90CF90BF90AF909F909B
:100C20008F907F906F905F900895FC01A085B185B3
:100C300021898C9190E0022E02C0959587950A94A7
:100C4000E2F780FFF6CF0484F585E02D60830895F8
:100C50008AE091E09093A4018093A3018FE191E059
:100C60009093A6018093A50185EC90E09093A80154
:100C70008093A70184EC90E09093AA018093A9014E
:100C800080EC90E09093AC018093AB0181EC90E01C
:100C90009093AE018093AD0186EC90E09093B0010B
:100CA0008093AF0184E08093B10183E08093B2012F
:100CB00087E08093B30185E08093B40181E0809365
:100CC000B50108950F931F93CF93DF938C01EB0130
:100CD00009C02196D801ED91FC910190F081E02DA1
:100CE000C801099568816623A1F7DF91CF911F9113
:100CF0000F910895EF92FF920F931F93CF93DF937D
:100D00008C017B01EA010CC0D7016D917D01D801F6
:100D1000ED91FC910190F081E02DC801099521979A
:100D2000209791F7DF91CF911F910F91FF90EF9056
:100D300008952F923F924F925F926F927F928F927F
:100D40009F92AF92BF92CF92DF92EF92FF920F935A
:100D50001F93DF93CF93CDB7DEB7A0970FB6F8946C
:100D6000DEBF0FBECDBF1C016A017B0141155105DD
:100D70006105710549F4DC01ED91FC910190F08170
:100D8000E02D60E3099554C0882499245401422E33
:100D900055246624772401E010E00C0F1D1F080D78
:100DA000191DC701B601A30192010E949F07F80116
:100DB00060830894811C911CA11CB11CC701B60161
:100DC000A30192010E949F07C901DA016C017D0114
:100DD000C114D104E104F104F1F681E0E82EF12C14
:100DE000EC0EFD1EE80CF91C3E010894611C711C00
:100DF000D501C4010197A109B1096C01C818D9082E
:100E000014C0F601EE0DFF1D60816A3010F4605DC4
:100E100001C0695CD101ED91FC910190F081E02D60
:100E2000C10109950894E108F1086E147F0449F79F
:100E3000A0960FB6F894DEBF0FBECDBFCF91DF9165
:100E40001F910F91FF90EF90DF90CF90BF90AF90E8
:100E50009F908F907F906F905F904F903F902F90DA
:100E60000895EF92FF920F931F93CF93DF93EC01BE
:100E70007A018B0177FF0FC0E881F9810190F08141
:100E8000E02D6DE2099510950095F094E094E11C39
:100E9000F11C011D111DCE01B801A7012AE00E941D
:100EA0009906DF91CF911F910F91FF90EF900895D8
:100EB000DC012115310541F4ED91FC910190F081A7
:100EC000E02D642F099508952A30310519F40E9408
:100ED000310708950E9499060895629FD001739F7B
:100EE000F001829FE00DF11D649FE00DF11D929FC6
:100EF000F00D839FF00D749FF00D659FF00D992705
:100F0000729FB00DE11DF91F639FB00DE11DF91F28
:100F1000BD01CF011124089597FB092E07260AD0A1
:100F200077FD04D049D006D000201AF47095619561
:100F30007F4F0895F6F7909581959F4F0895A1E210
:100F40001A2EAA1BBB1BFD010DC0AA1FBB1FEE1F43
:100F5000FF1FA217B307E407F50720F0A21BB30B8E
:100F6000E40BF50B661F771F881F991F1A9469F70A
:100F700060957095809590959B01AC01BD01CF0166
:100F8000089597FB092E05260ED057FD04D0D7DF14
:100F90000AD0001C38F450954095309521953F4F6C
:100FA0004F4F5F4F0895F6F7909580957095619536
:100FB0007F4F8F4F9F4F0895AA1BBB1B51E107C066
:100FC000AA1FBB1FA617B70710F0A61BB70B881FD9
:100FD000991F5A95A9F780959095BC01CD01089568
:100FE000EE0FFF1F0590F491E02D0994F894FFCFC8
:100FF00062526563760000000000150662067A06FC
:00000001FF
