:100000000C9464000C948C000C948C000C948C0068
:100010000C948C000C948C000C948C000C948C0030
:100020000C948C000C948C000C948C000C948C0020
:100030000C948C000C948C000C948C000C948C0010
:100040000C9469050C948C000C946B030C948C003C
:100050000C948C000C948C000C948C000C948C00F0
:100060000C948C000C948C000000000024002700ED
:100070002A0000000000250028002B0000000000DE
:1000800023002600290004040404040404040202DA
:100090000202020203030303030301020408102007
:1000A0004080010204081020010204081020000012
:1000B0000007000201000003040600000000000029
:1000C00000008E003A02240411241FBECFEFD4E0BA
:1000D000DEBFCDBF11E0A0E0B1E0E8EDFDE002C081
:1000E00005900D92A031B107D9F711E0A0E1B1E080
:1000F00001C01D92A83BB107E1F710E0C8ECD0E0C9
:1001000004C02297FE010E94E606C23CD107C9F74F
:100110000E9464030C94EA060C94000088E080932B
:10012000110187E08093120181E08093130180E147
:10013000809314010895FC01828160E00E943306DF
:100140000895FC01828161E00E9433060895FC015C
:10015000818160E00E9433060895FC01818161E0A5
:100160000E94330608950F931F938C010E949B00F9
:1001700085E191E062EE0E941E02C8010E94A1008A
:100180001F910F910895CF92DF92EF92FF920F93FC
:100190001F936C01162F042F0E949B0085E1E82E0F
:1001A00081E0F82E1F711062C701612F0E941E02AC
:1001B000C701602F0E941E02C6010E94A1001F916C
:1001C0000F91FF90EF90DF90CF9008950F931F93C2
:1001D0008C01FC0110820E94A700C80160E04BE284
:1001E0000E94C300C8010E94AD00C80167E040E35F
:1001F0000E94C3001F910F9108950F931F938C01CC
:1002000065E0F80143810E94C300C80161E1F80183
:1002100044810E94C300C80162E1F80144810E9448
:10022000C300C8010E94E600C8010E94B3001F91EC
:100230000F9108950F931F93CF93DF93042FEB013A
:1002400010E006C085E191E069910E941E021F5FE7
:100250001017C0F3DF91CF911F910F910895CF92A6
:10026000DF92EF92FF920F931F937C01162F6A018A
:10027000022F0E949B001F71106285E191E0612FA7
:100280000E941E02C701B601402F0E941A01C70139
:100290000E94A1001F910F91FF90EF90DF90CF90EF
:1002A0000895EF92FF920F931F938C017B010E94A0
:1002B000A700C8016BE0A70125E00E942F01C8013B
:1002C0000E94AD001F910F91FF90EF900895DF9273
:1002D000EF92FF920F931F93CF93DF937A01D22E69
:1002E0008B01C0E0D0E00CC085E191E0F8016191A4
:1002F0008F010E941E02F701EC0FFD1F80832196E3
:10030000CD1590F3DF91CF911F910F91FF90EF905A
:10031000DF900895CF92DF92EF92FF920F931F9399
:100320007C01162F6A01022F0E949B001F7185E13C
:1003300091E0612F0E941E02C701B601A601202F85
:100340000E946701C7010E94A1001F910F91FF90B9
:10035000EF90DF90CF900895DF93CF930F92CDB7BA
:10036000DEB767E0AE014F5F5F4F21E00E948A0178
:1003700089810F90CF91DF9108950E94AC0190E0A8
:1003800026E0969587952A95E1F781700895DF9389
:10039000CF930F92CDB7DEB767E1AE014F5F5F4FEE
:1003A00021E00E948A01898181700F90CF91DF91B5
:1003B0000895EF92FF920F931F938C017B010E948F
:1003C0009B0085E191E061E60E941E02C801B70131
:1003D000A701F80124810E946701C8010E94A100C1
:1003E000C80167E040E40E94C3001F910F91FF9095
:1003F000EF9008950F931F938C01FC01818161E0C0
:100400000E941306F801828161E00E941306C80170
:100410000E94A700C8010E94A10085E191E061E06F
:100420000E94170281E08DBD1F910F9108951CBCA1
:100430006F7260656CBD8DB58EB508956EBD0DB4DF
:1004400007FEFDCF8EB508958DE061E00E94130692
:100450008BE061E00E9413068CE060E00E941306CE
:100460008AE061E00E9413061CBC80E58CBD8DB55E
:100470008EB5089585E191E00E94240208950F93BE
:100480001F930AE911E0C80140E850E060E070E025
:1004900020E030E00E945405C80141E050E060E0F7
:1004A00070E020E030E00E945405C80141E050E0D7
:1004B00060E070E020E030E00E945405C80140E3B5
:1004C00050E060E070E020E030E00E945405C80198
:1004D00040E050E060E070E020E030E00E94540531
:1004E0001F910F9108950F931F930AE911E0C8011E
:1004F00040E850E060E070E020E030E00E94540509
:10050000C80141E050E060E070E020E030E00E948F
:100510005405C80140E050E060E070E020E030E0C9
:100520000E945405C80140E350E060E070E020E024
:1005300030E00E945405C8014FE450E060E070E0F4
:1005400020E030E00E9454051F910F9108958F9292
:100550009F92AF92BF92CF92DF92EF92FF920F9352
:100560001F93E82E862E8AE9C82E81E0D82EC60178
:1005700060E071E00E948A04C60140E850E060E05B
:1005800070E020E030E00E945405C60141E050E0F8
:1005900060E070E020E030E00E945405C60144E0D5
:1005A00050E060E070E020E030E00E945405C601B9
:1005B00040E350E060E070E020E030E00E9454054D
:1005C000FF2400E010E0C601B801A70120E030E000
:1005D0000E9454059924AA24BB24C601B501A40194
:1005E00020E030E00E9454051F910F91FF90EF90A2
:1005F000DF90CF90BF90AF909F908F900895CF9253
:10060000DF92EF92FF920F931F93DF93CF93CDB7BB
:10061000DEB7EDB6FEB6809114012DB73EB7281BAC
:1006200031090FB6F8943EBF0FBE2DBF0DB71EB7F0
:100630000F5F1F4F80E191E00E94BD018823A9F068
:10064000680180E191E0B6010E94D901F801808142
:10065000803329F4F801818162810E94A70280E140
:1006600091E00E94C701882361F30FB6F894FEBEA3
:100670000FBEEDBECF91DF911F910F91FF90EF90D4
:10068000DF90CF9008950F931F930E9473020E94F2
:100690003F028AE991E040E855E260E070E00E94A4
:1006A000A80300E111E0C8010E94FA01C80164E05A
:1006B00071E00E94510183E080931401C8010E94FF
:1006C000FD001F910F9108950E94D9050E944303D8
:1006D0000E94FF02FDCF1F920F920FB60F921124BE
:1006E0002F933F934F935F936F937F938F939F933A
:1006F000AF93BF93EF93FF934091C600E0919601B3
:10070000F0919701CF01019660E870E00E948006A9
:100710009C0180919801909199012817390739F02F
:10072000EA5EFE4F40833093970120939601FF913C
:10073000EF91BF91AF919F918F917F916F915F9159
:100740004F913F912F910F900FBE0F901F901895D2
:10075000AF92BF92CF92DF92EF92FF920F931F93CF
:10076000CF93DF936C017A018B01DC011496AD907D
:10077000BC901597CB01BA0122E030E040E050E098
:100780000E94B506205C3D4B404F5F4FCA01B90146
:10079000A80197010E94B506C901DA010197A109D4
:1007A000B109292F3A2F4B2F552747FD5A9501960E
:1007B000A11DB11DE5012883E601EE81FF81815075
:1007C0008083EA85FB85208141E050E0CA010E84E8
:1007D00002C0880F991F0A94E2F7282B2083EA852C
:1007E000FB852081CA010F8402C0880F991F0A94DB
:1007F000E2F7282B2083EA85FB858081088802C0E8
:10080000440F551F0A94E2F7842B8083DF91CF9128
:100810001F910F91FF90EF90DF90CF90BF90AF901E
:100820000895FC01A085B18521898C9190E0022E6C
:1008300002C0959587950A94E2F780FFF6CF04846D
:10084000F585E02D608308958EE091E090939B0103
:1008500080939A0186E191E090939D0180939C01A1
:1008600085EC90E090939F0180939E0184EC90E052
:100870009093A1018093A00180EC90E09093A3015C
:100880008093A20181EC90E09093A5018093A40154
:1008900086EC90E09093A7018093A60184E080937A
:1008A000A80183E08093A90187E08093AA0185E0F5
:1008B0008093AB0108950F931F93CF93DF938C0127
:1008C000EB0109C02196D801ED91FC910190F081D6
:1008D000E02DC801099568816623A1F7DF91CF91CA
:1008E0001F910F9108950F931F938C01DC01ED91DF
:1008F000FC910190F081E02D6DE00995D801ED911A
:10090000FC910190F081E02DC8016AE009951F91EA
:100910000F9108950F931F938C010E945B04C801EF
:100920000E9473041F910F9108952F923F924F924E
:100930005F926F927F928F929F92AF92BF92CF926F
:10094000DF92EF92FF920F931F93DF93CF93CDB778
:10095000DEB7A0970FB6F894DEBF0FBECDBF1C0167
:100960006A017B01411551056105710549F4DC01FE
:10097000ED91FC910190F081E02D60E3099554C068
:10098000882499245401422E55246624772401E0BA
:1009900010E00C0F1D1F080D191DC701B601A301A2
:1009A00092010E949306F80160830894811C911CB7
:1009B000A11CB11CC701B601A30192010E949306BC
:1009C000C901DA016C017D01C114D104E104F10413
:1009D000F1F681E0E82EF12CEC0EFD1EE80CF91C7E
:1009E0003E010894611C711CD501C4010197A10945
:1009F000B1096C01C818D90814C0F601EE0DFF1D2D
:100A000060816A3010F4605D01C0695CD101ED91D4
:100A1000FC910190F081E02DC10109950894E10855
:100A2000F1086E147F0449F7A0960FB6F894DEBF64
:100A30000FBECDBFCF91DF911F910F91FF90EF902F
:100A4000DF90CF90BF90AF909F908F907F906F90EE
:100A50005F904F903F902F900895EF92FF920F93E9
:100A60001F93CF93DF93EC017A018B0177FF0FC0C7
:100A7000E881F9810190F081E02D6DE209951095F2
:100A80000095F094E094E11CF11C011D111DCE01B4
:100A9000B801A7012AE00E949504DF91CF911F9130
:100AA0000F91FF90EF900895DC012115310541F47D
:100AB000ED91FC910190F081E02D642F099508954E
:100AC0002A30310519F40E942D0508950E949504DD
:100AD00008951F920F920FB60F9211242F938F93A8
:100AE0009F93AF93BF938091AC019091AD01A09182
:100AF000AE01B091AF010196A11DB11D8093AC0173
:100B00009093AD01A093AE01B093AF018091B0017D
:100B10009091B101A091B201B091B3018050904C7D
:100B2000AF4FBF4F8093B0019093B101A093B2013A
:100B3000B093B30127C08091B0019091B101A09111
:100B4000B201B091B30180589E43A040B040809361
:100B5000B0019093B101A093B201B093B301809121
:100B6000B4019091B501A091B601B091B701019681
:100B7000A11DB11D8093B4019093B501A093B6015E
:100B8000B093B7018091B0019091B101A091B201F1
:100B9000B091B30181589E43A040B04060F6BF9130
:100BA000AF919F918F912F910F900FBE0F901F903B
:100BB0001895789484B5826084BD84B5816084BDC5
:100BC00085B5826085BD85B5816085BDEEE6F0E0C6
:100BD000808181608083E1E8F0E0808182608083B1
:100BE000808181608083E0E8F0E0808181608083A3
:100BF000E1EBF0E0808184608083E0EBF0E08081D5
:100C000081608083EAE7F0E0808184608083808176
:100C1000826080838081816080838081806880831E
:100C20001092C1000895282F30E0C90186569F4FC9
:100C3000FC0194912A573F4FF9018491882391F048
:100C4000E82FF0E0EE0FFF1FE859FF4FA591B49198
:100C5000662329F48C91909589238C9308958C9127
:100C6000892B8C930895482F50E0CA0182559F4FDD
:100C7000FC012491CA0186569F4FFC0194914A576A
:100C80005F4FFA0134913323D1F1222331F1233024
:100C900021F4809180008F7705C0243031F4809159
:100CA00080008F7D8093800018C0213019F484B5B6
:100CB0008F7704C0223021F484B58F7D84BD0DC0B0
:100CC000263021F48091B0008F7705C0273029F4B9
:100CD0008091B0008F7D8093B000E32FF0E0EE0FA5
:100CE000FF1FEE58FF4FA591B491662329F48C9114
:100CF000909589238C9308958C91892B8C930895DA
:100D000097FB092E07260AD077FD04D049D006D0DC
:100D100000201AF4709561957F4F0895F6F790952D
:100D200081959F4F0895A1E21A2EAA1BBB1BFD01BE
:100D30000DC0AA1FBB1FEE1FFF1FA217B307E407BA
:100D4000F50720F0A21BB30BE40BF50B661F771F12
:100D5000881F991F1A9469F76095709580959095F2
:100D60009B01AC01BD01CF01089597FB092E05261B
:100D70000ED057FD04D0D7DF0AD0001C38F45095B0
:100D80004095309521953F4F4F4F5F4F0895F6F7AF
:100D900090958095709561957F4F8F4F9F4F0895E7
:100DA000AA1BBB1B51E107C0AA1FBB1FA617B70791
:100DB00010F0A61BB70B881F991F5A95A9F78095AD
:100DC0009095BC01CD010895EE0FFF1F0590F491A1
:080DD000E02D0994F894FFCF17
:100DD8004D533A006252656376000000000011042A
:00000001FF
