:100000000C9464000C948C000C948C000C948C0068
:100010000C948C000C948C000C948C000C948C0030
:100020000C948C000C948C000C948C000C948C0020
:100030000C948C000C948C000C948C000C948C0010
:100040000C94FF030C948C000C94D3020C948C0041
:100050000C948C000C948C000C948C000C948C00F0
:100060000C948C000C948C000000000024002700ED
:100070002A0000000000250028002B0000000000DE
:1000800023002600290004040404040404040202DA
:100090000202020203030303030301020408102007
:1000A0004080010204081020010204081020000012
:1000B0000007000201000003040600000000000029
:1000C00000008E006C02C80311241FBECFEFD4E0E5
:1000D000DEBFCDBF11E0A0E0B1E0E4E0FBE002C094
:1000E00005900D92A231B107D9F711E0A2E1B1E07C
:1000F00001C01D92AE3BB107E1F710E0C8ECD0E0C3
:1001000004C02297FE010E947C05C23CD107C9F7BA
:100110000E94CC020C9480050C94000088E080932F
:10012000130187E08093140181E08093150180E141
:10013000809316010895FC01828160E00E94C90449
:100140000895FC01828161E00E94C9040895FC01C8
:10015000818160E00E94C9040895FC01818161E011
:100160000E94C90408950F931F938C010E949B0065
:1001700087E191E062EE0E945002C8010E94A10056
:100180001F910F910895CF92DF92EF92FF920F93FC
:100190001F936C01162F042F0E949B0087E1E82E0D
:1001A00081E0F82E1F711062C701612F0E9450027A
:1001B000C701602F0E945002C6010E94A1001F913A
:1001C0000F91FF90EF90DF90CF900895FC0181E0B8
:1001D0008083CF0160E04AE20E94C30008950F933C
:1001E0001F938C01FC0110820E94A700C80160E0EF
:1001F0004BE20E94C300C8010E94AD00C80167E045
:1002000040E30E94C3001F910F9108950F931F9325
:100210008C0165E0F80143810E94C300C80161E1DF
:10022000F80144810E94C300C80162E1F8014481E1
:100230000E94C300C8010E94EF00C8010E94B300E1
:100240001F910F9108950F931F93CF93DF93042F66
:10025000EB0110E006C087E191E069910E94500235
:100260001F5F1017C0F3DF91CF911F910F91089579
:10027000CF92DF92EF92FF920F931F937C01162F84
:100280006A01022F0E949B001F71106287E191E0BA
:10029000612F0E945002C701B601402F0E94230126
:1002A000C7010E94A1001F910F91FF90EF90DF9076
:1002B000CF900895EF92FF920F931F938C017B01D3
:1002C0006AE0A70125E00E943801C80160E1A701AA
:1002D00025E00E9438011F910F91FF90EF90089543
:1002E000EF92FF920F931F938C017B010E94A70056
:1002F000C8016BE0A70125E00E943801C8010E94F7
:10030000AD001F910F91FF90EF900895DF92EF9253
:10031000FF920F931F93CF93DF937A01D22E8B011D
:10032000C0E0D0E00CC087E191E0F80161918F015D
:100330000E945002F701EC0FFD1F80832196CD151E
:1003400090F3DF91CF911F910F91FF90EF90DF908D
:100350000895CF92DF92EF92FF920F931F937C014B
:10036000162F6A01022F0E949B001F7187E191E006
:10037000612F0E945002C701B601A601202F0E94E2
:100380008601C7010E94A1001F910F91FF90EF907D
:10039000DF90CF900895DF93CF930F92CDB7DEB764
:1003A00067E0AE014F5F5F4F21E00E94A9018981A4
:1003B0000F90CF91DF910895CF93DF93EC01888167
:1003C000882359F0CE010E94CB01807311F481E0A3
:1003D00004C0CE010E94EF0080E0DF91CF9108952C
:1003E0000F931F93CF93DF93EC018B010E94CB01FE
:1003F00007C0CE010E94CB01807311F0188203C0A8
:1004000088818823B1F7CE010E94A700CE010E9407
:10041000E600CE010E949B0087E191E061EE0E9420
:100420005002CE010E94A100CE010E949B0087E1F4
:1004300091E060EA0E945002CE01B8014C810E9416
:100440002301CE010E94A100CE010E94AD00DF91E8
:10045000CF911F910F9108950F931F938C01FC0171
:10046000818161E00E94A904F801828161E00E941B
:10047000A904C8010E94A700C8010E94A10087E149
:1004800091E061E00E94490281E08DBD1F910F91D2
:1004900008951CBC6F7260656CBD8DB58EB50895F6
:1004A0006EBD0DB407FEFDCF8EB508958DE061E001
:1004B0000E94A9048BE061E00E94A9048CE060E046
:1004C0000E94A9048AE061E00E94A9041CBC80E5A6
:1004D0008CBD8DB58EB5089587E191E00E945602DE
:1004E000089582E191E060E071E00E945A0182E1AA
:1004F00091E068E171E00E94F00182E191E00E94E8
:10050000DC018823D1F708951F9380EA91E00E94CF
:100510007903882311F110911B01112341F480EA22
:1005200091E00E948D03859781F481E00CC080EA00
:1005300091E00E948D03E12FF0E0E95EFE4F8083A1
:1005400080911B018F5F80931B0180911B01843080
:1005500021F40E94710210921B011F9108950F93C4
:100560001F9380EA91E040E855E260E070E00E946D
:10057000100302E111E0C8010E942C02C80166E0EC
:1005800071E00E94700183E080931601C8010E940F
:1005900006011F910F9108950E946F040E94AF02FF
:1005A0000E948402FDCF1F920F920FB60F9211246A
:1005B0002F933F934F935F936F937F938F939F936B
:1005C000AF93BF93EF93FF934091C600E0919C01DE
:1005D000F0919D01CF01019660E870E00E94160540
:1005E0009C0180919E0190919F012817390739F055
:1005F000E45EFE4F408330939D0120939C01FF9168
:10060000EF91BF91AF919F918F917F916F915F918A
:100610004F913F912F910F900FBE0F901F90189503
:10062000AF92BF92CF92DF92EF92FF920F931F9300
:10063000CF93DF936C017A018B01DC011496AD90AE
:10064000BC901597CB01BA0122E030E040E050E0C9
:100650000E942905205C3D4B404F5F4FCA01B90104
:10066000A80197010E942905C901DA010197A10992
:10067000B109292F3A2F4B2F552747FD5A9501963F
:10068000A11DB11DE5012883E601EE81FF818150A6
:100690008083EA85FB85208141E050E0CA010E8419
:1006A00002C0880F991F0A94E2F7282B2083EA855D
:1006B000FB852081CA010F8402C0880F991F0A940C
:1006C000E2F7282B2083EA85FB858081088802C019
:1006D000440F551F0A94E2F7842B8083DF91CF915A
:1006E0001F910F91FF90EF90DF90CF90BF90AF9050
:1006F0000895DC011296ED91FC911397E058FF4F9D
:100700008191919180589F4F20813181821B930B61
:1007100060E870E00E9416050895CF93DF93DC0136
:100720001296ED91FC911397EF01CE57DF4F488160
:100730005981E058FF4F80819181E058F040841743
:10074000950719F42FEF3FEF0CC0E40FF51F208140
:10075000CA01019660E870E00E94160599838883BB
:1007600030E0C901DF91CF910895FC01A085B185EA
:1007700021898C9190E0022E02C0959587950A946C
:10078000E2F780FFF6CF0484F585E02D60830895BD
:1007900080E191E09093A1018093A0018CE191E030
:1007A0009093A3018093A20185EC90E09093A50122
:1007B0008093A40184EC90E09093A7018093A6011C
:1007C00080EC90E09093A9018093A80181EC90E0E7
:1007D0009093AB018093AA0186EC90E09093AD01D9
:1007E0008093AC0184E08093AE0183E08093AF01FD
:1007F00087E08093B00185E08093B10108951F9256
:100800000F920FB60F9211242F938F939F93AF9354
:10081000BF938091B2019091B301A091B401B091C6
:10082000B5010196A11DB11D8093B2019093B30152
:10083000A093B401B093B5018091B6019091B70136
:10084000A091B801B091B9018050904CAF4FBF4F0B
:100850008093B6019093B701A093B801B093B9010A
:1008600027C08091B6019091B701A091B801B091D5
:10087000B90180589E43A040B0408093B601909348
:10088000B701A093B801B093B9018091BA019091DA
:10089000BB01A091BC01B091BD010196A11DB11D8C
:1008A0008093BA019093BB01A093BC01B093BD01AA
:1008B0008091B6019091B701A091B801B091B901B2
:1008C00081589E43A040B04060F6BF91AF919F9188
:1008D0008F912F910F900FBE0F901F9018957894C5
:1008E00084B5826084BD84B5816084BD85B5826035
:1008F00085BD85B5816085BDEEE6F0E080818160D3
:100900008083E1E8F0E08081826080838081816083
:100910008083E0E8F0E0808181608083E1EBF0E0BB
:10092000808184608083E0EBF0E08081816080835F
:10093000EAE7F0E080818460808380818260808348
:100940008081816080838081806880831092C10073
:100950000895282F30E0C90186569F4FFC019491DD
:100960002A573F4FF9018491882391F0E82FF0E056
:10097000EE0FFF1FE859FF4FA591B491662329F4AC
:100980008C91909589238C9308958C91892B8C93CD
:100990000895482F50E0CA0182559F4FFC012491D1
:1009A000CA0186569F4FFC0194914A575F4FFA0146
:1009B00034913323D1F1222331F1233021F480917A
:1009C00080008F7705C0243031F4809180008F7DC6
:1009D0008093800018C0213019F484B58F7704C04B
:1009E000223021F484B58F7D84BD0DC0263021F4E2
:1009F0008091B0008F7705C0273029F48091B00036
:100A00008F7D8093B000E32FF0E0EE0FFF1FEE58D4
:100A1000FF4FA591B491662329F48C919095892379
:100A20008C9308958C91892B8C93089597FB092EB4
:100A300007260AD077FD04D027D006D000201AF46C
:100A4000709561957F4F0895F6F7909581959F4F2A
:100A5000089597FB092E05260ED057FD04D028D007
:100A60000AD0001C38F450954095309521953F4FA1
:100A70004F4F5F4F0895F6F790958095709561956B
:100A80007F4F8F4F9F4F0895AA1BBB1B51E107C09B
:100A9000AA1FBB1FA617B70710F0A61BB70B881F0E
:100AA000991F5A95A9F780959095BC01CD0108959D
:100AB000A1E21A2EAA1BBB1BFD010DC0AA1FBB1F62
:100AC000EE1FFF1FA217B307E407F50720F0A21BD4
:100AD000B30BE40BF50B661F771F881F991F1A9441
:100AE00069F760957095809590959B01AC01BD016B
:100AF000CF010895EE0FFF1F0590F491E02D0994AA
:040B0000F894FFCF97
:100B0400625265637600625472616E0000000000F8
:020B1400B50327
:00000001FF
