:100000000C9464000C948C000C948C000C948C0068
:100010000C948C000C948C000C948C000C948C0030
:100020000C948C000C948C000C948C000C948C0020
:100030000C948C000C948C000C948C000C948C0010
:100040000C94B8030C948C000C94C8020C948C0093
:100050000C948C000C948C000C948C000C948C00F0
:100060000C948C000C948C000000000024002700ED
:100070002A0000000000250028002B0000000000DE
:1000800023002600290004040404040404040202DA
:100090000202020203030303030301020408102007
:1000A0004080010204081020010204081020000012
:1000B0000007000201000003040600000000000029
:1000C00000008E006C02810311241FBECFEFD4E02C
:1000D000DEBFCDBF11E0A0E0B1E0EAECFAE002C083
:1000E00005900D92A231B107D9F711E0A2E1B1E07C
:1000F00001C01D92AD3BB107E1F710E0C8ECD0E0C4
:1001000004C02297FE010E945F05C23CD107C9F7D7
:100110000E94C1020C9463050C94000088E0809357
:10012000130187E08093140181E08093150180E141
:10013000809316010895FC01828160E00E94AC0466
:100140000895FC01828161E00E94AC040895FC01E5
:10015000818160E00E94AC040895FC01818161E02E
:100160000E94AC0408950F931F938C010E949B0082
:1001700087E191E062EE0E945002C8010E94A10056
:100180001F910F910895CF92DF92EF92FF920F93FC
:100190001F936C01162F042F0E949B0087E1E82E0D
:1001A00081E0F82E1F711062C701612F0E9450027A
:1001B000C701602F0E945002C6010E94A1001F913A
:1001C0000F91FF90EF90DF90CF900895FC0181E0B8
:1001D0008083CF0160E04AE20E94C30008950F933C
:1001E0001F938C01FC0110820E94A700C80160E0EF
:1001F0004BE20E94C300C8010E94AD00C80167E045
:1002000040E30E94C3001F910F9108950F931F9325
:100210008C0165E0F80143810E94C300C80161E1DF
:10022000F80144810E94C300C80162E1F8014481E1
:100230000E94C300C8010E94EF00C8010E94B300E1
:100240001F910F9108950F931F93CF93DF93042F66
:10025000EB0110E006C087E191E069910E94500235
:100260001F5F1017C0F3DF91CF911F910F91089579
:10027000CF92DF92EF92FF920F931F937C01162F84
:100280006A01022F0E949B001F71106287E191E0BA
:10029000612F0E945002C701B601402F0E94230126
:1002A000C7010E94A1001F910F91FF90EF90DF9076
:1002B000CF900895EF92FF920F931F938C017B01D3
:1002C0006AE0A70125E00E943801C80160E1A701AA
:1002D00025E00E9438011F910F91FF90EF90089543
:1002E000EF92FF920F931F938C017B010E94A70056
:1002F000C8016BE0A70125E00E943801C8010E94F7
:10030000AD001F910F91FF90EF900895DF92EF9253
:10031000FF920F931F93CF93DF937A01D22E8B011D
:10032000C0E0D0E00CC087E191E0F80161918F015D
:100330000E945002F701EC0FFD1F80832196CD151E
:1003400090F3DF91CF911F910F91FF90EF90DF908D
:100350000895CF92DF92EF92FF920F931F937C014B
:10036000162F6A01022F0E949B001F7187E191E006
:10037000612F0E945002C701B601A601202F0E94E2
:100380008601C7010E94A1001F910F91FF90EF907D
:10039000DF90CF900895DF93CF930F92CDB7DEB764
:1003A00067E0AE014F5F5F4F21E00E94A9018981A4
:1003B0000F90CF91DF910895CF93DF93EC01888167
:1003C000882359F0CE010E94CB01807311F481E0A3
:1003D00004C0CE010E94EF0080E0DF91CF9108952C
:1003E0000F931F93CF93DF93EC018B010E94CB01FE
:1003F00007C0CE010E94CB01807311F0188203C0A8
:1004000088818823B1F7CE010E94A700CE010E9407
:10041000E600CE010E949B0087E191E061EE0E9420
:100420005002CE010E94A100CE010E949B0087E1F4
:1004300091E060EA0E945002CE01B8014C810E9416
:100440002301CE010E94A100CE010E94AD00DF91E8
:10045000CF911F910F9108950F931F938C01FC0171
:10046000818161E00E948C04F801828161E00E9438
:100470008C04C8010E94A700C8010E94A10087E166
:1004800091E061E00E94490281E08DBD1F910F91D2
:1004900008951CBC6F7260656CBD8DB58EB50895F6
:1004A0006EBD0DB407FEFDCF8EB508958DE061E001
:1004B0000E948C048BE061E00E948C048CE060E080
:1004C0000E948C048AE061E00E948C041CBC80E5E0
:1004D0008CBD8DB58EB5089587E191E00E945602DE
:1004E000089582E191E060E071E00E945A0182E1AA
:1004F00091E068E171E00E94F00182E191E00E94E8
:10050000DC018823D1F708951092180181E08093CF
:10051000190184EF80931A010E947102089584E802
:1005200093E00E94840268EB7BE080E090E00E9410
:1005300028048CE592E10E94840268EB7BE080E075
:1005400090E00E94280408950F931F938FE991E093
:1005500040E855E260E070E00E94050302E111E02E
:10056000C8010E942C02C80166E071E00E9470017F
:1005700083E080931601C8010E9406011F910F912C
:1005800008950E9452040E94A4020E948F02FDCF8F
:100590001F920F920FB60F9211242F933F934F93F8
:1005A0005F936F937F938F939F93AF93BF93EF93DB
:1005B000FF934091C600E0919B01F0919C01CF0117
:1005C000019660E870E00E94F9049C0180919D0111
:1005D00090919E012817390739F0E55EFE4F408360
:1005E00030939C0120939B01FF91EF91BF91AF91BC
:1005F0009F918F917F916F915F914F913F912F913B
:100600000F900FBE0F901F901895AF92BF92CF9290
:10061000DF92EF92FF920F931F93CF93DF936C01C2
:100620007A018B01DC011496AD90BC901597CB013B
:10063000BA0122E030E040E050E00E940C05205C6E
:100640003D4B404F5F4FCA01B901A80197010E947D
:100650000C05C901DA010197A109B109292F3A2F27
:100660004B2F552747FD5A950196A11DB11DE50158
:100670002883E601EE81FF8181508083EA85FB8536
:10068000208141E050E0CA010E8402C0880F991F0A
:100690000A94E2F7282B2083EA85FB852081CA0192
:1006A0000F8402C0880F991F0A94E2F7282B208339
:1006B000EA85FB858081088802C0440F551F0A9493
:1006C000E2F7842B8083DF91CF911F910F91FF90F0
:1006D000EF90DF90CF90BF90AF900895FC01A08580
:1006E000B18521898C9190E0022E02C09595879565
:1006F0000A94E2F780FFF6CF0484F585E02D60834D
:10070000089580E191E09093A00180939F018BE197
:1007100091E09093A2018093A10185EC90E09093E9
:10072000A4018093A30184EC90E09093A6018093B0
:10073000A50180EC90E09093A8018093A70181EC43
:1007400090E09093AA018093A90186EC90E09093A9
:10075000AC018093AB0184E08093AD0183E0809392
:10076000AE0187E08093AF0185E08093B0010895EA
:100770001F920F920FB60F9211242F938F939F9376
:10078000AF93BF938091B1019091B201A091B30159
:10079000B091B4010196A11DB11D8093B101909358
:1007A000B201A093B301B093B4018091B5019091CF
:1007B000B601A091B701B091B8018050904CAF4FF5
:1007C000BF4F8093B5019093B601A093B701B0934A
:1007D000B80127C08091B5019091B601A091B701F1
:1007E000B091B80180589E43A040B0408093B501BD
:1007F0009093B601A093B701B093B8018091B9016D
:100800009091BA01A091BB01B091BC010196A11DCC
:10081000B11D8093B9019093BA01A093BB01B0932D
:10082000BC018091B5019091B601A091B701B09142
:10083000B80181589E43A040B04060F6BF91AF918F
:100840009F918F912F910F900FBE0F901F90189531
:10085000EF92FF920F931F937B018C018FB7F89457
:100860004091B9015091BA016091BB017091BC01F6
:100870008FBF2FB7F8948091B9019091BA01A091E0
:10088000BB01B091BC012FBF841B950BA60BB70B0E
:10089000E816F9060A071B0760F71F910F91FF90F2
:1008A000EF900895789484B5826084BD84B58160AA
:1008B00084BD85B5826085BD85B5816085BDEEE668
:1008C000F0E0808181608083E1E8F0E080818260F7
:1008D0008083808181608083E0E8F0E080818160B6
:1008E0008083E1EBF0E0808184608083E0EBF0E0E6
:1008F000808181608083EAE7F0E08081846080838A
:100900008081826080838081816080838081806833
:1009100080831092C1000895282F30E0C9018656C7
:100920009F4FFC0194912A573F4FF90184918823EE
:1009300091F0E82FF0E0EE0FFF1FE859FF4FA5916F
:10094000B491662329F48C91909589238C93089512
:100950008C91892B8C930895482F50E0CA018255C1
:100960009F4FFC012491CA0186569F4FFC01949130
:100970004A575F4FFA0134913323D1F1222331F1E9
:10098000233021F4809180008F7705C0243031F42A
:10099000809180008F7D8093800018C0213019F4F1
:1009A00084B58F7704C0223021F484B58F7D84BD57
:1009B0000DC0263021F48091B0008F7705C027301C
:1009C00029F48091B0008F7D8093B000E32FF0E098
:1009D000EE0FFF1FEE58FF4FA591B491662329F447
:1009E0008C91909589238C9308958C91892B8C936D
:1009F000089597FB092E07260AD077FD04D027D04B
:100A000006D000201AF4709561957F4F0895F6F78F
:100A1000909581959F4F089597FB092E05260ED03E
:100A200057FD04D028D00AD0001C38F450954095CA
:100A3000309521953F4F4F4F5F4F0895F6F79095B2
:100A40008095709561957F4F8F4F9F4F0895AA1B9A
:100A5000BB1B51E107C0AA1FBB1FA617B70710F0A9
:100A6000A61BB70B881F991F5A95A9F780959095DB
:100A7000BC01CD010895A1E21A2EAA1BBB1BFD01EA
:100A80000DC0AA1FBB1FEE1FFF1FA217B307E4076D
:100A9000F50720F0A21BB30BE40BF50B661F771FC5
:100AA000881F991F1A9469F76095709580959095A5
:100AB0009B01AC01BD01CF010895EE0FFF1F059012
:0A0AC000F491E02D0994F894FFCFA3
:100ACA00625265637600625472616E000000000033
:020ADA006E03A9
:00000001FF
