:100000000C9464000C948C000C948C000C948C0068
:100010000C948C000C948C000C948C000C948C0030
:100020000C948C000C948C000C948C000C948C0020
:100030000C948C000C948C000C948C000C948C0010
:100040000C942A050C948C000C9466030C948C0080
:100050000C948C000C948C000C948C000C948C00F0
:100060000C948C000C948C000000000024002700ED
:100070002A0000000000250028002B0000000000DE
:1000800023002600290004040404040404040202DA
:100090000202020203030303030301020408102007
:1000A0004080010204081020010204081020000012
:1000B0000007000201000003040600000000000029
:1000C00000008E003A021F0411241FBECFEFD4E0BF
:1000D000DEBFCDBF11E0A0E0B1E0EAE5FDE002C087
:1000E00005900D92AC30B107D9F711E0ACE0B1E06A
:1000F00001C01D92A43BB107E1F710E0C8ECD0E0CD
:1001000004C02297FE010E94A706C23CD107C9F78E
:100110000E945F030C94AB060C94000088E080936F
:100120000D0187E080930E0181E080930F0180E153
:10013000809310010895FC01828160E00E94F40523
:100140000895FC01828161E00E94F4050895FC019C
:10015000818160E00E94F4050895FC01818161E0E5
:100160000E94F40508950F931F938C010E949B0039
:1001700081E191E062EE0E941E02C8010E94A1008E
:100180001F910F910895CF92DF92EF92FF920F93FC
:100190001F936C01162F042F0E949B0081E1E82E13
:1001A00081E0F82E1F711062C701612F0E941E02AC
:1001B000C701602F0E941E02C6010E94A1001F916C
:1001C0000F91FF90EF90DF90CF9008950F931F93C2
:1001D0008C01FC0110820E94A700C80160E04BE284
:1001E0000E94C300C8010E94AD00C80167E040E35F
:1001F0000E94C3001F910F9108950F931F938C01CC
:1002000065E0F80143810E94C300C80161E1F80183
:1002100044810E94C300C80162E1F80144810E9448
:10022000C300C8010E94E600C8010E94B3001F91EC
:100230000F9108950F931F93CF93DF93042FEB013A
:1002400010E006C081E191E069910E941E021F5FEB
:100250001017C0F3DF91CF911F910F910895CF92A6
:10026000DF92EF92FF920F931F937C01162F6A018A
:10027000022F0E949B001F71106281E191E0612FAB
:100280000E941E02C701B601402F0E941A01C70139
:100290000E94A1001F910F91FF90EF90DF90CF90EF
:1002A0000895EF92FF920F931F938C017B010E94A0
:1002B000A700C8016BE0A70125E00E942F01C8013B
:1002C0000E94AD001F910F91FF90EF900895DF9273
:1002D000EF92FF920F931F93CF93DF937A01D22E69
:1002E0008B01C0E0D0E00CC081E191E0F8016191A8
:1002F0008F010E941E02F701EC0FFD1F80832196E3
:10030000CD1590F3DF91CF911F910F91FF90EF905A
:10031000DF900895CF92DF92EF92FF920F931F9399
:100320007C01162F6A01022F0E949B001F7181E140
:1003300091E0612F0E941E02C701B601A601202F85
:100340000E946701C7010E94A1001F910F91FF90B9
:10035000EF90DF90CF900895DF93CF930F92CDB7BA
:10036000DEB767E0AE014F5F5F4F21E00E948A0178
:1003700089810F90CF91DF9108950E94AC0190E0A8
:1003800026E0969587952A95E1F781700895DF9389
:10039000CF930F92CDB7DEB767E1AE014F5F5F4FEE
:1003A00021E00E948A01898181700F90CF91DF91B5
:1003B0000895EF92FF920F931F938C017B010E948F
:1003C0009B0081E191E061E60E941E02C801B70135
:1003D000A701F80124810E946701C8010E94A100C1
:1003E000C80167E040E40E94C3001F910F91FF9095
:1003F000EF9008950F931F938C01FC01818161E0C0
:100400000E94D405F801828161E00E94D405C801F0
:100410000E94A700C8010E94A10081E191E061E073
:100420000E94170281E08DBD1F910F9108951CBCA1
:100430006F7260656CBD8DB58EB508956EBD0DB4DF
:1004400007FEFDCF8EB508958DE061E00E94D405D2
:100450008BE061E00E94D4058CE060E00E94D4054E
:100460008AE061E00E94D4051CBC80E58CBD8DB59E
:100470008EB5089581E191E00E94240208950F93C2
:100480001F9306E911E0C80140E850E060E070E029
:1004900020E030E00E941505C80141E050E060E036
:1004A00070E020E030E00E941505C80141E050E016
:1004B00060E070E020E030E00E941505C80140E0F7
:1004C00050E060E070E020E030E00E941505C801D7
:1004D00040E050E060E070E020E030E00E94150570
:1004E0001F910F9108950F931F9306E911E0C80122
:1004F00040E850E060E070E020E030E00E94150548
:10050000C80141E050E060E070E020E030E00E948F
:100510001505C80140E050E060E070E020E030E008
:100520000E941505C80140E050E060E070E020E066
:1005300030E00E941505C8014FE450E060E070E033
:1005400020E030E00E9415051F910F9108958F92D1
:100550009F92AF92BF92CF92DF92EF92FF920F9352
:100560001F93E82EA62E86E9882E81E0982EC401DE
:1005700040E850E060E070E020E030E00E941505C7
:10058000C40141E050E060E070E020E030E00E9413
:100590001505C40144E050E060E070E020E030E088
:1005A0000E941505C40140E050E060E070E020E0EA
:1005B00030E00E941505FF2400E010E0C401B801FE
:1005C000A70120E030E00E941505BB24CC24DD24E7
:1005D000C401B601A50120E030E00E9415051F917D
:1005E0000F91FF90EF90DF90CF90BF90AF909F90D2
:1005F0008F900895CF92DF92EF92FF920F931F9307
:10060000DF93CF93CDB7DEB7EDB6FEB68091100184
:100610002DB73EB7281B31090FB6F8943EBF0FBE69
:100620002DBF0DB71EB70F5F1F4F8CE091E00E94EA
:10063000BD018823A9F068018CE091E0B6010E9419
:10064000D901F8018081803329F4F8018181628128
:100650000E94A7028CE091E00E94C701882361F309
:100660000FB6F894FEBE0FBEEDBECF91DF911F9185
:100670000F91FF90EF90DF90CF9008950F931F930D
:100680000E9473020E943F0286E991E040E855E231
:1006900060E070E00E94A3030CE011E0C8010E943A
:1006A000FA01C80160E071E00E94510183E080938B
:1006B0001001C8010E94FD001F910F9108950E9432
:1006C0009A050E943E030E94FA02FDCF1F920F92EC
:1006D0000FB60F9211242F933F934F935F936F9315
:1006E0007F938F939F93AF93BF93EF93FF9340912B
:1006F000C600E0919201F0919301CF01019660E86C
:1007000070E00E9441069C018091940190919501B6
:100710002817390739F0EE5EFE4F4083309393017E
:1007200020939201FF91EF91BF91AF919F918F9193
:100730007F916F915F914F913F912F910F900FBEDD
:100740000F901F901895AF92BF92CF92DF92EF92C9
:10075000FF920F931F93CF93DF936C017A018B016C
:10076000DC011496AD90BC901597CB01BA0122E044
:1007700030E040E050E00E947606205C3D4B404F68
:100780005F4FCA01B901A80197010E947606C9010D
:10079000DA010197A109B109292F3A2F4B2F5527CB
:1007A00047FD5A950196A11DB11DE5012883E6017B
:1007B000EE81FF8181508083EA85FB85208141E0C5
:1007C00050E0CA010E8402C0880F991F0A94E2F714
:1007D000282B2083EA85FB852081CA010F8402C073
:1007E000880F991F0A94E2F7282B2083EA85FB855E
:1007F0008081088802C0440F551F0A94E2F7842BB9
:100800008083DF91CF911F910F91FF90EF90DF9048
:10081000CF90BF90AF900895FC01A085B18521894C
:100820008C9190E0022E02C0959587950A94E2F78C
:1008300080FFF6CF0484F585E02D608308958AE07B
:1008400091E0909397018093960182E191E09093DB
:1008500099018093980185EC90E090939B0180939F
:100860009A0184EC90E090939D0180939C0180EC30
:1008700090E090939F0180939E0181EC90E0909393
:10088000A1018093A00186EC90E09093A301809356
:10089000A20184E08093A40183E08093A50187E016
:1008A0008093A60185E08093A70108952F923F923F
:1008B0004F925F926F927F928F929F92AF92BF9270
:1008C000CF92DF92EF92FF920F931F93DF93CF931C
:1008D000CDB7DEB7A0970FB6F894DEBF0FBECDBF81
:1008E0001C016A017B01411551056105710549F43F
:1008F000DC01ED91FC910190F081E02D60E3099520
:1009000054C0882499245401422E55246624772407
:1009100001E010E00C0F1D1F080D191DC701B601E5
:10092000A30192010E945406F80160830894811C7F
:10093000911CA11CB11CC701B601A30192010E9428
:100940005406C901DA016C017D01C114D104E1042E
:10095000F104F1F681E0E82EF12CEC0EFD1EE80C1E
:10096000F91C3E010894611C711CD501C40101975A
:10097000A109B1096C01C818D90814C0F601EE0D1F
:10098000FF1D60816A3010F4605D01C0695CD101B7
:10099000ED91FC910190F081E02DC1010995089441
:1009A000E108F1086E147F0449F7A0960FB6F89499
:1009B000DEBF0FBECDBFCF91DF911F910F91FF9092
:1009C000EF90DF90CF90BF90AF909F908F907F90EF
:1009D0006F905F904F903F902F900895EF92FF920D
:1009E0000F931F93CF93DF93EC017A018B0177FF75
:1009F0000FC0E881F9810190F081E02D6DE2099549
:100A000010950095F094E094E11CF11C011D111D5E
:100A1000CE01B801A7012AE00E945604DF91CF91D0
:100A20001F910F91FF90EF900895DC012115310582
:100A300041F4ED91FC910190F081E02D642F099536
:100A400008952A30310519F40E94EE0408950E9499
:100A5000560408951F920F920FB60F9211242F93F0
:100A60008F939F93AF93BF938091A8019091A90119
:100A7000A091AA01B091AB010196A11DB11D809377
:100A8000A8019093A901A093AA01B093AB01809112
:100A9000AC019091AD01A091AE01B091AF01805039
:100AA000904CAF4FBF4F8093AC019093AD01A0939A
:100AB000AE01B093AF0127C08091AC019091AD0120
:100AC000A091AE01B091AF0180589E43A040B040CC
:100AD0008093AC019093AD01A093AE01B093AF01B0
:100AE0008091B0019091B101A091B201B091B30198
:100AF0000196A11DB11D8093B0019093B101A09307
:100B0000B201B093B3018091AC019091AD01A0917D
:100B1000AE01B091AF0181589E43A040B04060F655
:100B2000BF91AF919F918F912F910F900FBE0F901A
:100B30001F901895789484B5826084BD84B58160D7
:100B400084BD85B5826085BD85B5816085BDEEE6D5
:100B5000F0E0808181608083E1E8F0E08081826064
:100B60008083808181608083E0E8F0E08081816023
:100B70008083E1EBF0E0808184608083E0EBF0E053
:100B8000808181608083EAE7F0E0808184608083F7
:100B900080818260808380818160808380818068A1
:100BA00080831092C1000895282F30E0C901865635
:100BB0009F4FFC0194912A573F4FF901849188235C
:100BC00091F0E82FF0E0EE0FFF1FE859FF4FA591DD
:100BD000B491662329F48C91909589238C93089580
:100BE0008C91892B8C930895482F50E0CA0182552F
:100BF0009F4FFC012491CA0186569F4FFC0194919E
:100C00004A575F4FFA0134913323D1F1222331F156
:100C1000233021F4809180008F7705C0243031F497
:100C2000809180008F7D8093800018C0213019F45E
:100C300084B58F7704C0223021F484B58F7D84BDC4
:100C40000DC0263021F48091B0008F7705C0273089
:100C500029F48091B0008F7D8093B000E32FF0E005
:100C6000EE0FFF1FEE58FF4FA591B491662329F4B4
:100C70008C91909589238C9308958C91892B8C93DA
:100C8000089597FB092E07260AD077FD04D049D096
:100C900006D000201AF4709561957F4F0895F6F7FD
:100CA000909581959F4F0895A1E21A2EAA1BBB1B18
:100CB000FD010DC0AA1FBB1FEE1FFF1FA217B30728
:100CC000E407F50720F0A21BB30BE40BF50B661F3E
:100CD000771F881F991F1A9469F760957095809502
:100CE00090959B01AC01BD01CF01089597FB092EA2
:100CF00005260ED057FD04D0D7DF0AD0001C38F4EB
:100D000050954095309521953F4F4F4F5F4F089537
:100D1000F6F790958095709561957F4F8F4F9F4F17
:100D20000895AA1BBB1B51E107C0AA1FBB1FA61732
:100D3000B70710F0A61BB70B881F991F5A95A9F784
:100D400080959095BC01CD010895EE0FFF1F059091
:0A0D5000F491E02D0994F894FFCF10
:0C0D5A00625265637600000000000C048B
:00000001FF
