:100000000C9435000C945D000C945D000C945D0024
:100010000C945D000C945D000C945D000C945D00EC
:100020000C945D000C945D000C945D000C945D00DC
:100030000C945D000C945D000C945D000C945D00CC
:100040000C9433030C945D000C944D010C945D00F2
:100050000C945D000C945D000C945D000C945D00AC
:100060000C945D000C945D00060211241FBECFEFBE
:10007000D4E0DEBFCDBF11E0A0E0B1E0E6EEF8E0F5
:1000800002C005900D92AA30B107D9F711E0AAE09D
:10009000B1E001C01D92AD3AB107E1F710E0CAE648
:1000A000D0E004C02297FE010E946D04C836D1073B
:1000B000C9F70E9446010C9471040C9400000F9340
:1000C0001F930FE811E0C80140E850E060E070E0E5
:1000D00020E030E00E941303C80141E050E060E0FE
:1000E00070E020E030E00E941303C80141E050E0DE
:1000F00060E070E020E030E00E94130340910A01CC
:1001000050E060E070E0C80120E030E00E9413039E
:10011000C80140E050E060E070E020E030E00E9484
:1001200013031F910F9108950F931F930FE811E090
:10013000C80140E850E060E070E020E030E00E945C
:100140001303C80141E050E060E070E020E030E0DF
:100150000E941303C80140E050E060E070E020E03E
:1001600030E00E94130340910A0150E060E070E02B
:10017000C80120E030E00E941303C8014FE450E0C2
:1001800060E070E020E030E00E9413031F910F91C7
:100190000895CF93DF93C0910001D09101018C1796
:1001A0009D074CF02091020130910301EC012817CA
:1001B00039070CF4E9018FE891E040E850E060E095
:1001C00070E020E130E00E9428038FE891E041E0F8
:1001D00050E060E070E020E130E00E9428038FE80A
:1001E00091E044E050E060E070E020E130E00E9407
:1001F000280340910A0150E060E070E08FE891E050
:1002000020E130E00E942803CE01880F892F881F4B
:10021000990B91958F73482F50E060E070E08FE864
:1002200091E020E130E00E942803CE018F77482F33
:1002300050E060E070E08FE891E020E130E00E9463
:100240002803DF91CF91089584E893E00E94C900CC
:1002500060ED77E080E090E00E94A3038CE592E1FE
:100260000E94C90060ED77E080E090E00E94A30367
:1002700008958FE891E040E855E260E070E00E9468
:100280008A010E9494000E945F0008950E94CD039D
:100290000E9439010E942401FDCF1F920F920FB6D8
:1002A0000F9211242F933F934F935F936F937F93FC
:1002B0008F939F93AF93BF93EF93FF934091C600AB
:1002C000E0918B01F0918C01CF01019660E870E024
:1002D0000E9407049C0180918D0190918E01281746
:1002E000390739F0E55FFE4F408330938C0120934E
:1002F0008B01FF91EF91BF91AF919F918F917F9172
:100300006F915F914F913F912F910F900FBE0F9082
:100310001F901895AF92BF92CF92DF92EF92FF920B
:100320000F931F93CF93DF936C017A018B01DC0154
:100330001496AD90BC901597CB01BA0122E030E045
:1003400040E050E00E943C04205C3D4B404F5F4F3A
:10035000CA01B901A80197010E943C04C901DA0150
:100360000197A109B109292F3A2F4B2F552747FD96
:100370005A950196A11DB11DE5012883E601EE8184
:10038000FF8181508083EA85FB85208141E050E038
:10039000CA010E8402C0880F991F0A94E2F7282B25
:1003A0002083EA85FB852081CA010F8402C0880F63
:1003B000991F0A94E2F7282B2083EA85FB85808128
:1003C000088802C0440F551F0A94E2F7842B8083EB
:1003D000DF91CF911F910F91FF90EF90DF90CF9021
:1003E000BF90AF900895FC01A085B18521898C91C3
:1003F00090E0022E02C0959587950A94E2F780FF5F
:10040000F6CF0484F585E02D6083089588E091E0BF
:100410009093900180938F018BE091E090939201F3
:100420008093910185EC90E09093940180939301E7
:1004300084EC90E0909396018093950180EC90E09D
:10044000909398018093970181EC90E090939A01AA
:100450008093990186EC90E090939C0180939B019E
:1004600084E080939D0183E080939E0187E08093E8
:100470009F0185E08093A00108950F931F938C0145
:10048000DC01ED91FC910190F081E02D6DE009958A
:10049000D801ED91FC910190F081E02DC8016AE056
:1004A00009951F910F9108952F923F924F925F925D
:1004B0006F927F928F929F92AF92BF92CF92DF9274
:1004C000EF92FF920F931F93DF93CF93CDB7DEB7D9
:1004D000A0970FB6F894DEBF0FBECDBF1C016A0116
:1004E0007B01411551056105710549F4DC01ED9170
:1004F000FC910190F081E02D60E3099554C08824BF
:1005000099245401422E55246624772401E010E0FA
:100510000C0F1D1F080D191DC701B601A301920183
:100520000E941A04F80160830894811C911CA11C8C
:10053000B11CC701B601A30192010E941A04C901AE
:10054000DA016C017D01C114D104E104F104F1F67A
:1005500081E0E82EF12CEC0EFD1EE80CF91C3E01AA
:100560000894611C711CD501C4010197A109B1094E
:100570006C01C818D90814C0F601EE0DFF1D60818A
:100580006A3010F4605D01C0695CD101ED91FC91AD
:100590000190F081E02DC10109950894E108F1086E
:1005A0006E147F0449F7A0960FB6F894DEBF0FBE15
:1005B000CDBFCF91DF911F910F91FF90EF90DF9012
:1005C000CF90BF90AF909F908F907F906F905F90F3
:1005D0004F903F902F900895EF92FF920F931F93AB
:1005E000CF93DF93EC017A018B0177FF0FC0E88195
:1005F000F9810190F081E02D6DE20995109500954B
:10060000F094E094E11CF11C011D111DCE01B80114
:10061000A7012AE00E945402DF91CF911F910F9110
:10062000FF90EF900895DC012115310541F4ED9123
:10063000FC910190F081E02D642F099508952A30F6
:10064000310519F40E94EC0208950E9454020895A5
:100650000F931F938C010E941303C8010E943D0257
:100660001F910F9108951F920F920FB60F921124B0
:100670002F938F939F93AF93BF938091A1019091FC
:10068000A201A091A301B091A4010196A11DB11DE9
:100690008093A1019093A201A093A301B093A40120
:1006A0008091A5019091A601A091A701B091A80108
:1006B0008050904CAF4FBF4F8093A5019093A601FF
:1006C000A093A701B093A80127C08091A5019091A4
:1006D000A601A091A701B091A80180589E43A04017
:1006E000B0408093A5019093A601A093A701B09379
:1006F000A8018091A9019091AA01A091AB01B091AC
:10070000AC010196A11DB11D8093A9019093AA018E
:10071000A093AB01B093AC018091A5019091A6018B
:10072000A091A701B091A80181589E43A040B0407C
:1007300060F6BF91AF919F918F912F910F900FBE57
:100740000F901F901895EF92FF920F931F937B01CC
:100750008C018FB7F8944091A9015091AA01609142
:10076000AB017091AC018FBF2FB7F8948091A901B4
:100770009091AA01A091AB01B091AC012FBF841B55
:10078000950BA60BB70BE816F9060A071B0760F7CF
:100790001F910F91FF90EF900895789484B5826037
:1007A00084BD84B5816084BD85B5826085BD85B515
:1007B000816085BDEEE6F0E0808181608083E1E8C4
:1007C000F0E0808182608083808181608083E0E8C6
:1007D000F0E0808181608083E1EBF0E080818460E3
:1007E0008083E0EBF0E0808181608083EAE7F0E0E5
:1007F0008081846080838081826080838081816049
:1008000080838081806880831092C100089597FB67
:10081000092E07260AD077FD04D049D006D0002043
:100820001AF4709561957F4F0895F6F7909581952C
:100830009F4F0895A1E21A2EAA1BBB1BFD010DC0FC
:10084000AA1FBB1FEE1FFF1FA217B307E407F50780
:1008500020F0A21BB30BE40BF50B661F771F881F5C
:10086000991F1A9469F760957095809590959B01F2
:10087000AC01BD01CF01089597FB092E05260ED0CE
:1008800057FD04D0D7DF0AD0001C38F450954095AE
:10089000309521953F4F4F4F5F4F0895F6F7909554
:1008A0008095709561957F4F8F4F9F4F0895AA1B3C
:1008B000BB1B51E107C0AA1FBB1FA617B70710F04B
:1008C000A61BB70B881F991F5A95A9F7809590957D
:1008D000BC01CD010895EE0FFF1F0590F491E02DAE
:0608E0000994F894FFCF1B
:0A08E60084035C1200000000F3011F
:00000001FF
